:04000000FEEF3FF0E0
:10080000000000004B4B686F612068652074686FC2
:100810006E6721004E686170206D6174206D613AD1
:1008200000536169206D6174206D6121004E686123
:1008300070206D6B206D6F69004D4B2064612064EA
:100840006F6921004B686F61206C6169210046610E
:100850006365207363616E004D6F206B686F61216B
:0B08600000646F6E67206C616900008F
:10086C00000E0001916F000E906F720ED36E95907A
:10087C008390800E5B6E250E5C6E000E5D6E000E1E
:10088C005E6EA2EC12F0720ED36E96908D9093EC7D
:10089C0014F0320E00017B6F000E7C6F000E7D6F2A
:1008AC00000E7E6F52EC10F07BC092F07CC093F087
:1008BC00000E0001606F000E616F400E626F400E03
:1008CC00636F92C064F093C065F023EC12F0F19E5C
:1008DC0027EC14F0000E0A6E140E0B6E000ED5EC05
:1008EC0013F0C00E47EC13F06CEC0EF00001946F9B
:1008FC003D0E9419D8A485EF04F087EF04F063EF54
:10090C0005F0B051B60FD96EDA6ADF6A9005911115
:10091C00D8A493EF04F095EF04F0C1EF04F0A50E0A
:10092C00016EB60E026E54EC14F097EC14F0000E3F
:10093C000A6E390E0B6E000ED5EC13F0070E026E1C
:10094C00D00E016E6FEC13F097EC14F0000E0A6EE3
:10095C00140E0B6E000ED5EC13F0000E0A6E2C0E5E
:10096C000B6E010ED5EC13F0000E0001916F000E12
:10097C00906F50EF05F097EC14F0B60E016EA50ECB
:10098C00026EF0EC12F001500210D8A4D0EF04F07B
:10099C00D2EF04F0F2EF04F0000E0A6E580E0B6E5C
:1009AC00000ED5EC13F0000E0001606F000E616FAD
:1009BC00E00E626F400E636F92C064F093C065F0FE
:1009CC0023EC12F0550E88EC14F0000E0001B36FFE
:1009DC00000EB26F3AEF05F00001B24BB32B000ED4
:1009EC000A6E210E0B6E000ED5EC13F00001B3BF96
:1009FC0009EF05F0B35109E1030EB25DD8A009EF80
:100A0C0005F00BEF05F03AEF05F0000E0A6E050E3F
:100A1C000B6E010ED5EC13F0000E00018D6F000E65
:100A2C008C6F8DBF23EF05F08D5109E1030E8C5DAA
:100A3C00D8A023EF05F025EF05F027EF05F0EBEF3D
:100A4C0004F08D80010E026EF40E016E6FEC13F04B
:100A5C008D90010E026EF40E016E6FEC13F000011E
:100A6C008C4B8D2B17EF05F0070E026ED00E016E1E
:100A7C006FEC13F097EC14F0000E0A6E140E0B6E64
:100A8C00000ED5EC13F0000E0A6E2C0E0B6E010E40
:100A9C00D5EC13F0000E0001B16F000EB06FB60E66
:100AAC00016E000E036E000E026E000E056E070E38
:100ABC00046E0FEC14F07AEF04F02B0E9419D8A4FA
:100ACC006AEF05F06CEF05F08CEF05F0000EB16FDE
:100ADC00000EB06FB60E016E000E036E000E026EAD
:100AEC00000E056E070E046E0FEC14F0000E0001E4
:100AFC00916F010E906F97EC14F0000E0A6E2D0E94
:100B0C000B6E000ED5EC13F07AEF04F02D0E941949
:100B1C00D8A493EF05F095EF05F0B5EF05F0B1BF54
:100B2C00A0EF05F0B15108E1B005D8A0A0EF05F099
:100B3C00A2EF05F07AEF04F0B007D8A0B107B051DE
:100B4C00B60FD96EDA6ADF6A100E47EC13F0200E7E
:100B5C001FEC13F0100E47EC13F07AEF04F02A0E92
:100B6C009419D8A4BCEF05F0BEEF05F0F1EF05F039
:100B7C0097EC14F0000E0A6E440E0B6E000ED5ECC2
:100B8C0013F0000E0001606F000E616F400E626F7B
:100B9C00400E636F92C064F093C065F023EC12F0CA
:100BAC004C0E88EC14F0030E026EE80E016E6FEC26
:100BBC0013F097EC14F0000E0A6E140E0B6E000E70
:100BCC00D5EC13F0000E0A6E2C0E0B6E010ED5EC4C
:100BDC0013F07AEF04F02F0E9419D8A4F8EF05F067
:100BEC00FAEF05F088EF06F0000EB16F000EB06F53
:100BFC00000E8F6F000E8E6F8FBF0EEF06F0880EFB
:100C0C008E5D130E8F59D8A00EEF06F010EF06F084
:100C1C0012EF06F07AEF04F0000E0A6E4E0E0B6E19
:100C2C00000ED5EC13F069EC14F000018B6F550E2F
:100C3C008B19D8A424EF06F026EF06F074EF06F01B
:100C4C0097EC14F0000E0A6E580E0B6E000ED5ECDD
:100C5C0013F0000E0001606F000E616FE00E626F0A
:100C6C00400E636F92C064F093C065F023EC12F0F9
:100C7C00130E026E880E016E6FEC13F0000E000165
:100C8C00606F000E616F400E626F400E636F92C01A
:100C9C0064F093C065F023EC12F097EC14F0000EA6
:100CAC000A6E610E0B6E000ED5EC13F0070E026E81
:100CBC00D00E016E6FEC13F097EC14F0000E0A6E70
:100CCC00140E0B6E000ED5EC13F0000E0A6E2C0EEB
:100CDC000B6E010ED5EC13F07AEF04F0640E8E2738
:100CEC00000E8F238FBF84EF06F0880E8E5D130EDF
:100CFC008F59D8A084EF06F086EF06F012EF06F0BD
:100D0C007AEF04F0B1BF96EF06F0B15107E1060E91
:100D1C00B05DD8B094EF06F096EF06F0C1EF06F098
:100D2C009451D8B49CEF06F09EEF06F0C1EF06F09C
:100D3C0090059111D8A4A5EF06F0A7EF06F0B3EF3C
:100D4C0006F0B051B111D8A4AEEF06F0B0EF06F03A
:100D5C00B3EF06F0C00E47EC13F00001B051B60F24
:100D6C00D96EDA6A94C0DFFFB04BB12B94511FECF3
:100D7C0013F07AEF04F07AEF04F0FEEF3FF04450FA
:100D8C00800B4D6E445044244F6E43AED0EF06F0B2
:100D9C00D2EF06F0D3EF06F04F804F50D8B4D9EF16
:100DAC0006F0DBEF06F0EFEF06F04F28D8A4E1EFEA
:100DBC0006F0E3EF06F0EBEF06F0000E416E000ECE
:100DCC00426E000E436E000E446E438E446AF7EF83
:100DDC0006F0000E416E000E426E000E436E000EC9
:100DEC00446E4850800B4E6E4D504E18D8B401EFE7
:100DFC0007F003EF07F004EF07F04D8C4850482440
:100E0C004E6E47AE0CEF07F00EEF07F00FEF07F04A
:100E1C004E804E50D8B415EF07F017EF07F02BEFBC
:100E2C0007F04E28D8A41DEF07F01FEF07F027EFAF
:100E3C0007F0000E456E000E466E000E476E000E5B
:100E4C00486E478E486A33EF07F0000E456E000E71
:100E5C00466E000E476E000E486E4F504E5CD8B07A
:100E6C003AEF07F03CEF07F063EF07F04DAC41EFC2
:100E7C0007F043EF07F045EF07F0800E4D1A4FC017
:100E8C0050F04EC04FF050C04EF041C050F045C035
:100E9C0041F050C045F042C050F046C042F050C046
:100EAC0046F043C050F047C043F050C047F044C038
:100EBC0050F048C044F050C048F0506A4F504EC0FB
:100ECC0049F04A6A495E000E4A5A4ABE77EF07F06B
:100EDC004A5009E11A0E495CD8A077EF07F079EF78
:100EEC0007F0B0EF07F04150421043104410D8A463
:100EFC0082EF07F085EF07F0010E86EF07F0000E8A
:100F0C00506E000E416E000E426E000E436E000ECF
:100F1C00446E4EC04FF0B9EF07F050A098EF07F0B9
:100F2C009AEF07F0A0EF07F0D89050300109506EFF
:100F3C00A2EF07F0D890503241A0A7EF07F0A9EF2D
:100F4C0007F0AAEF07F0508E443444324332423259
:100F5C0041324F2A4E504F5CD8A0B7EF07F0B9EF93
:100F6C0007F093EF07F04DBCBEEF07F0C0EF07F0B2
:100F7C0000EF08F04F50D8A4C6EF07F0C8EF07F009
:100F8C00D2EF07F0000E416E000E426E000E436E63
:100F9C00000E446E1FEF09F0455041264650422288
:100FAC00475043224850442244A0DFEF07F0E1EFC2
:100FBC0007F08DEF08F050A0E6EF07F0E8EF07F030
:100FCC00EEEF07F0D89050300109506EF0EF07F0BB
:100FDC00D890503241A0F5EF07F0F7EF07F0F8EF9B
:100FEC0007F0508E443444324332423241324F2A5D
:100FFC008DEF08F04550415C4650425847504358DD
:10100C004450800A496E4850800A4958D8B011EFB4
:10101C0008F013EF08F03EEF08F04150455C496EC4
:10102C00425046584A6E435047584B6E44504858AD
:10103C004C6EFF0E4924416EFF0E4A20426EFF0E8D
:10104C004B20436EFF0E4C20446E800E4D1A506C9C
:10105C005050D8A434EF08F036EF08F046EF08F003
:10106C00010E4126000E42224322442246EF08F094
:10107C004550415E4650425A4750435A4850445A94
:10108C004150421043104410D8A44FEF08F051EFD8
:10109C0008F086EF08F05050D8A457EF08F059EF3D
:1010AC0008F086EF08F0000E416E000E426E000E46
:1010BC00436E000E446E1FEF09F0D8904136423655
:1010CC004336443650AE6DEF08F06FEF08F070EF1A
:1010DC0008F0418050A075EF08F077EF08F07BEF37
:1010EC0008F0D88050367DEF08F0D89050364F502D
:1010FC00D8B483EF08F085EF08F086EF08F04F06C0
:10110C0043AE8BEF08F08DEF08F063EF08F04E6AFA
:10111C0050AE93EF08F095EF08F0ADEF08F050C02B
:10112C0049F07F0E4916D8B49EEF08F0A0EF08F0F6
:10113C00A4EF08F0010E4E6EADEF08F041A0A9EF40
:10114C0008F0ABEF08F0ADEF08F0A0EF08F04E5050
:10115C00D8B4B3EF08F0B5EF08F0E0EF08F0010EEB
:10116C004126000E42224322442244A0C0EF08F044
:10117C00C2EF08F0E0EF08F041C049F042C04AF07D
:10118C0043C04BF044C04CF04C344C324B324A32DE
:10119C00493249C041F04AC042F04BC043F04CC008
:1011AC0044F04F28D8B4DDEF08F0DFEF08F0E0EFA3
:1011BC0008F04F2A4F28D8B4E6EF08F0E8EF08F013
:1011CC00F0EF08F04F50D8A4EEEF08F0F0EF08F075
:1011DC0001EF09F0000E416E000E426E000E436EE0
:1011EC00000E446E4F50D8A4FEEF08F000EF09F04B
:1011FC0001EF09F04D6A4FA006EF09F008EF09F076
:10120C000BEF09F0438E0CEF09F0439ED8904F3052
:10121C00446E4DAE14EF09F016EF09F017EF09F01C
:10122C00448E41C041F042C042F043C043F044C040
:10123C0044F012001250800B1B6E12501224216EBF
:10124C0011AE2BEF09F02DEF09F02EEF09F02180F4
:10125C002150D8B434EF09F036EF09F049EF09F01A
:10126C002128D8A43CEF09F03EEF09F046EF09F035
:10127C00000E0F6E000E106E000E116E000E126E30
:10128C00118E51EF09F0000E0F6E000E106E000E55
:10129C00116E000E126E1650800B1B1A165016246F
:1012AC00206E15AE5CEF09F05EEF09F05FEF09F010
:1012BC0020802050D8B465EF09F067EF09F07AEF81
:1012CC0009F02028D8A46DEF09F06FEF09F077EF43
:1012DC0009F0000E136E000E146E000E156E000E4B
:1012EC00166E158E82EF09F0000E136E000E146E42
:1012FC00000E156E000E166E2050D8B488EF09F053
:10130C008AEF09F092EF09F02150D8A490EF09F080
:10131C0092EF09F09CEF09F0000E0F6E000E106EAC
:10132C00000E116E000E126E32EF0BF015500F0204
:10133C00F3CF26F0F4CF27F026501C6E1D6A1E6AE0
:10134C001F6A2750226E236A246A256A14501002E1
:10135C00F3CF26F0F4CF27F026501C26000E1D22CA
:10136C001E221F2227502226000E23222422252251
:10137C0013501102F3CF26F0F4CF27F026501C2681
:10138C00000E1D221E221F2227502226000E232271
:10139C00242225221EC01FF01DC01EF01CC01DF0F3
:1013AC001C6A13501002F3CF26F0F4CF27F026500E
:1013BC001C2627501D22000E1E22000E1F22145028
:1013CC000F02F3CF26F0F4CF27F026501C2627501F
:1013DC001D22000E1E22000E1F221EC01FF01DC05B
:1013EC001EF01CC01DF01C6A13500F02F3CF26F028
:1013FC00F4CF27F026501C2627501D22000E1E224B
:10140C00000E1F2215501002F3CF26F0F4CF27F058
:10141C002650222627502322000E2422000E25229D
:10142C0014501102F3CF26F0F4CF27F026502226C9
:10143C0027502322000E2422000E252215501102C3
:10144C00F3CF26F0F4CF27F02650176E2750186EE6
:10145C00196A1A6A19C01AF018C019F017C018F0D6
:10146C00176A1750222618502322195024221A507A
:10147C0025221CC017F01DC018F01EC019F01FC08B
:10148C001AF0190E4FEF0AF0D8901A32193218329E
:10149C001732E82E4AEF0AF0175022261850232252
:1014AC00195024221A5025221EC01FF01DC01EF0F8
:1014BC001CC01DF01C6A205021C017F0186A17269A
:1014CC00000E1822820E1724266EFF0E1820276E8F
:1014DC0085EF0AF0D89022362336243625361FAEF7
:1014EC007AEF0AF07CEF0AF07DEF0AF02280D890B8
:1014FC001C361D361E361F362606D8A0270624AEEF
:10150C008AEF0AF08CEF0AF070EF0AF0206A1FAE37
:10151C0092EF0AF094EF0AF0B8EF0AF0FF0E1C14E9
:10152C00176EFF0E1D14186EFF0E1E14196E7F0E13
:10153C001F141A6E1750181019101A10D8B4A9EFDE
:10154C000AF0ABEF0AF0AFEF0AF0010E206EB8EF25
:10155C000AF022A0B4EF0AF0B6EF0AF0B8EF0AF0E6
:10156C00ABEF0AF02050D8B4BEEF0AF0C0EF0AF08F
:10157C00E4EF0AF0010E2226000E2322242225225B
:10158C0025A0CBEF0AF0CDEF0AF0E4EF0AF022C071
:10159C0017F023C018F024C019F025C01AF01A3423
:1015AC001A3219321832173217C022F018C023F031
:1015BC0019C024F01AC025F0264A272A27BEEFEFBF
:1015CC000AF0275008E12628D8A0EFEF0AF0F1EF37
:1015DC000AF0FBEF0AF0000E226E000E236E800E56
:1015EC00246E7F0E256E28EF0BF027BE08EF0BF054
:1015FC00275006E12604D8B006EF0BF008EF0BF0ED
:10160C0013EF0BF0000E226E000E236E000E246EF4
:10161C00000E256E1B6A28EF0BF026C021F0FF0E82
:10162C002216FF0E23167F0E2416000E251621A05F
:10163C0022EF0BF024EF0BF025EF0BF0248ED8905B
:10164C002130256E1B50251222C00FF023C010F044
:10165C0024C011F025C012F012002B50800B386EF4
:10166C002B502B243F6E2AAE3EEF0BF040EF0BF0CD
:10167C0041EF0BF03F803F50D8B447EF0BF049EFF0
:10168C000BF05DEF0BF03F28D8A44FEF0BF051EFB0
:10169C000BF059EF0BF0000E286E000E296E000EA9
:1016AC002A6E000E2B6E2A8E2B6A65EF0BF0000E45
:1016BC00286E000E296E000E2A6E000E2B6E2F5017
:1016CC00800B381A2F502F24406E2EAE70EF0BF07B
:1016DC0072EF0BF073EF0BF040804050D8B479EF01
:1016EC000BF07BEF0BF08FEF0BF04028D8A481EFC1
:1016FC000BF083EF0BF08BEF0BF0000E2C6E000E4B
:10170C002D6E000E2E6E000E2F6E2E8E2F6A97EF02
:10171C000BF0000E2C6E000E2D6E000E2E6E000EB9
:10172C002F6E2C502D102E102F10D8A4A0EF0BF0D4
:10173C00A2EF0BF0BAEF0BF0000E286E000E296E24
:10174C00000E2A6E000E2B6E800E2A127F0E2B12AC
:10175C0038502B1228C028F029C029F02AC02AF0B2
:10176C002BC02BF0FAEF0CF03F50D8A4C0EF0BF0CD
:10177C00C2EF0BF0CCEF0BF0000E286E000E296EB2
:10178C00000E2A6E000E2B6EFAEF0CF040503FC08C
:10179C0030F0316A305E000E315A7F0E3024396ED3
:1017AC00000E31203A6E28C034F029C035F02AC022
:1017BC0036F02BC037F0000E286E000E296E000E8E
:1017CC002A6E000E2B6E000E3B6E000E3C6E000E51
:1017DC003D6E000E3E6E406A2CEF0CF04050D8B4BB
:1017EC00FAEF0BF0FCEF0BF013EF0CF0D890343653
:1017FC00353636363736D890283629362A362B36B3
:10180C003EAE0BEF0CF00DEF0CF00EEF0CF0288051
:10181C00D8903B363C363D363E362C50345C2D5001
:10182C0035582E5036582F503758D8A020EF0CF082
:10183C0022EF0CF02BEF0CF03E8C2C50345E2D5024
:10184C00355A2E50365A2F50375A402A190E4064AA
:10185C0032EF0CF034EF0CF0F4EF0BF03450351099
:10186C0036103710D8B43DEF0CF03FEF0CF057EFBB
:10187C000CF03B8057EF0CF0D890283629362A36DE
:10188C002B363EAE4CEF0CF04EEF0CF04FEF0CF055
:10189C002880D8903B363C363D363E363906D8A0AB
:1018AC003A062AAE5CEF0CF05EEF0CF042EF0CF057
:1018BC00406A3EAE64EF0CF066EF0CF08AEF0CF071
:1018CC00FF0E3B14306EFF0E3C14316EFF0E3D14B8
:1018DC00326E7F0E3E14336E305031103210331096
:1018EC00D8B47BEF0CF07DEF0CF081EF0CF0010E17
:1018FC00406E8AEF0CF028A086EF0CF088EF0CF00D
:10190C008AEF0CF07DEF0CF04050D8B490EF0CF057
:10191C0092EF0CF0B6EF0CF0010E2826000E2922E7
:10192C002A222B222BA09DEF0CF09FEF0CF0B6EF90
:10193C000CF028C030F029C031F02AC032F02BC096
:10194C0033F03334333232323132303230C028F06B
:10195C0031C029F032C02AF033C02BF0394A3A2A70
:10196C003ABEC1EF0CF03A5008E13928D8A0C1EFCB
:10197C000CF0C3EF0CF0CEEF0CF0000E3A6E3968A1
:10198C00000E286E000E296E000E2A6E000E2B6EB5
:10199C003ABEDBEF0CF03A5006E13904D8B0D9EF7F
:1019AC000CF0DBEF0CF0E8EF0CF0000E3A6E000ED2
:1019BC00396E000E286E000E296E000E2A6E000E77
:1019CC002B6E386A39C03FF03FA0EFEF0CF0F1EF0F
:1019DC000CF0F4EF0CF02A8EF5EF0CF02A9ED89058
:1019EC003F302B6EAEEF0BF01200ACC06EF0ADC002
:1019FC006FF0AEC070F0AFC071F059C06EF05AC04D
:101A0C006FF05BC070F05CC071F06EC060F06FC0C6
:101A1C0061F070C062F071C063F0180E1CEF0DF035
:101A2C000001D8906333623361336033E82E16EFD4
:101A3C000DF060516C6F6D6B6DBF2EEF0DF06D5135
:101A4C0009E1960E6C5DD8A02EEF0DF030EF0DF085
:101A5C003AEF0DF059C059F05AC05AF05BC05BF028
:101A6C005CC05CF06BEF0EF071BF3FEF0DF042EF1E
:101A7C000DF0010E43EF0DF0000E766F7651D8B4D9
:101A8C004AEF0DF04CEF0DF05EEF0DF059C001F088
:101A9C005AC002F05BC003F05CC004F0F3EC13F02E
:101AAC0001C059F002C05AF003C05BF004C05CF0F6
:101ABC0000016DBF6DEF0DF06D5107E17E0E6C5D99
:101ACC00D8B06BEF0DF06DEF0DF077EF0DF0000E61
:101ADC00596E000E5A6E000E5B6E000E5C6E6BEF54
:101AEC000EF0000E456E000E466E000E476E4B0E4D
:101AFC00486E59C041F05AC042F05BC043F05CC024
:101B0C0044F0C5EC06F041C072F042C073F043C023
:101B1C0074F044C075F0000E456E000E466E000E5B
:101B2C00476ECB0E486E72C041F073C042F074C069
:101B3C0043F075C044F0C5EC06F041C064F042C0FF
:101B4C0065F043C066F044C067F064C051F065C0F6
:101B5C0052F066C053F067C054F059C055F05AC0EB
:101B6C0056F05BC057F05CC058F094EC13F051C0C9
:101B7C0077F052C078F053C079F054C07AF0000E70
:101B8C000001686F000E696F000E6A6F000E6B6FBC
:101B9C00000E016E000E026E000E036E3F0E046E00
:101BAC0077C005F078C006F079C007F07AC008F06D
:101BBC00A1EC11F0D8B0E5EF0DF0E7EF0DF0F2EF7E
:101BCC000DF0000E0001686F000E696F800E6A6FD9
:101BDC00BF0E6B6F14EF0EF0000E016E000E026E56
:101BEC00000E036EBF0E046E77C005F078C006F0D1
:101BFC0079C007F07AC008F0A1EC11F0D8A009EF79
:101C0C000EF00BEF0EF014EF0EF0000E0001686FEB
:101C1C00000E696F800E6A6F3F0E6B6F59C045F0F6
:101C2C005AC046F05BC047F05CC048F077C041F04A
:101C3C0078C042F079C043F07AC044F0C5EC06F0AD
:101C4C0041C072F042C073F043C074F044C075F0F0
:101C5C0072C041F073C042F074C043F075C044F0E0
:101C6C0068C045F069C046F06AC047F06BC048F0E8
:101C7C00C5EC06F041C077F042C078F043C079F073
:101C8C0044C07AF000017651D8B44FEF0EF051EF0A
:101C9C000EF063EF0EF077C001F078C002F079C05F
:101CAC0003F07AC004F0F3EC13F001C077F002C03B
:101CBC0078F003C079F004C07AF077C059F078C09E
:101CCC005AF079C05BF07AC05CF01200F00E936EA3
:101CDC00F00E8A6E8150F00B5F6EF00E5F18D8A478
:101CEC007AEF0EF07CEF0EF070EF0EF08150F00BEF
:101CFC005F6EF00E5F18D8A486EF0EF088EF0EF032
:101D0C0070EF0EF0000E026E320E016E6FEC13F0DF
:101D1C00F00E8A6E8150F00B5F6EF00E5F18D8B427
:101D2C009AEF0EF09CEF0EF090EF0EF08150F00B4E
:101D3C005F6EF00E5F18D8B4A6EF0EF0A8EF0EF0A1
:101D4C0090EF0EF0000E026E140E016E6FEC13F09D
:101D5C008150F00B5F6EFE0E8A6E8150F00B5F6E41
:101D6C005FC0B4F0F00E5F18D8B4BFEF0EF0C1EF47
:101D7C000EF0D3EF0EF00001B56BC8EF0EF08150F2
:101D8C00F00BB46FF00EB419D8A4CFEF0EF0D1EF66
:101D9C000EF0C5EF0EF03AEF0FF0FD0E8A6E81508B
:101DAC00F00B5F6E5FC0B4F0F00E5F18D8B4E1EFCB
:101DBC000EF0E3EF0EF0F6EF0EF0010E0001B56F32
:101DCC00EBEF0EF08150F00BB46FF00EB419D8A4F9
:101DDC00F2EF0EF0F4EF0EF0E8EF0EF03AEF0FF03A
:101DEC00FB0E8A6E8150F00B5F6E5FC0B4F0F00E8C
:101DFC005F18D8B404EF0FF006EF0FF019EF0FF0E7
:101E0C00020E0001B56F0EEF0FF08150F00BB46FA6
:101E1C00F00EB419D8A415EF0FF017EF0FF00BEF6D
:101E2C000FF03AEF0FF0F70E8A6E8150F00B5F6EE9
:101E3C005FC0B4F0F00E5F18D8B427EF0FF029EFA5
:101E4C000FF0B1EF0EF0030E0001B56F31EF0FF094
:101E5C008150F00BB46FF00EB419D8A438EF0FF01A
:101E6C003AEF0FF02EEF0FF0E00E5F18D8A441EF11
:101E7C000FF043EF0FF04CEF0FF0B551040DF35092
:101E8C00950FD96EDA6ADF5077EF0FF0D00E5F182E
:101E9C00D8A453EF0FF055EF0FF05EEF0FF0B551E4
:101EAC00040DF350960FD96EDA6ADF5077EF0FF00E
:101EBC00B00E5F18D8A465EF0FF067EF0FF070EF5E
:101ECC000FF0B551040DF350970FD96EDA6ADF504D
:101EDC0077EF0FF0B551040DF350980FD96EDA6A05
:101EEC00DF501200096E0950D8B47FEF0FF081EF6C
:101EFC000FF0A3EF0FF004BE88EF0FF086EF0FF09A
:101F0C00A3EF0FF001C005F002C006F003C007F00C
:101F1C0004C008F0051E061E071E081E052A000E2A
:101F2C0006220722082205C00BF006C00CF007C0E1
:101F3C000DF008C00EF0ABEF0FF001C00BF002C0BB
:101F4C000CF003C00DF004C00EF001500210031091
:101F5C000410D8A4B4EF0FF0B6EF0FF0C0EF0FF0F1
:101F6C00000E016E000E026E000E036E000E046E6B
:101F7C0051EF10F0960E0A6ECAEF0FF00A2AD890A5
:101F8C000E320D320C320B32000E0B14056E000E9D
:101F9C000C14066E000E0D14076EFE0E0E14086E59
:101FAC000550061007100810D8A4DFEF0FF0E1EF72
:101FBC000FF0C4EF0FF0EFEF0FF00A2A010E0B2613
:101FCC00000E0C220D220E22D8900E320D320C3245
:101FDC000B32000E0B14056E000E0C14066E000E68
:101FEC000D14076EFF0E0E14086E05500610071028
:101FFC000810D8A404EF10F006EF10F0E3EF0FF088
:10200C000EEF10F00A06D8900B360C360D360E3645
:10201C000DBE13EF10F015EF10F01DEF10F0020EC7
:10202C000A601BEF10F01DEF10F008EF10F00AB073
:10203C0022EF10F024EF10F025EF10F00D9ED89049
:10204C000A320AC005F0066A076A086A05C008F079
:10205C00076A066A056A05500B1206500C120750E7
:10206C000D1208500E120950D8B43FEF10F041EF8A
:10207C0010F049EF10F004BE48EF10F046EF10F0EE
:10208C0049EF10F00E8E0BC001F00CC002F00DC029
:10209C0003F00EC004F0120000017E517D1109E125
:1020AC00400E7B5D1F0E7C59D8B05FEF10F061EFD6
:1020BC0010F06BEF10F0000E846F020E836F000EA9
:1020CC00866F100E856F73EF10F0000E846F000E8C
:1020DC00836F000E866F010E856F000E136E000E5F
:1020EC00146E800E156E400E166E85C001F086C003
:1020FC0002F0000E02BEFF0E036E046E010E78ECB1
:10210C000FF001C00FF002C010F003C011F004C0BA
:10211C0012F020EC09F00FC07FF010C080F011C05D
:10212C0081F012C082F07BC001F07CC002F07DC057
:10213C0003F07EC004F0000E78EC0FF001C013F039
:10214C0002C014F003C015F004C016F07FC00FF0ED
:10215C0080C010F081C011F082C012F020EC09F0A8
:10216C000FC02CF010C02DF011C02EF012C02FF0AB
:10217C00000E016E120E026E7A0E036E000E046ECD
:10218C00000E78EC0FF001C028F002C029F003C05B
:10219C002AF004C02BF033EC0BF028C041F029C01E
:1021AC0042F02AC043F02BC044F0000E456E000EE6
:1021BC00466E800E476EBF0E486EC5EC06F041C0F1
:1021CC0087F042C088F043C089F044C08AF087C0D1
:1021DC0059F088C05AF089C05BF08AC05CF0FBEC07
:1021EC000CF059C087F05AC088F05BC089F05CC015
:1021FC008AF087C051F088C052F089C053F08AC071
:10220C0054F01EEC11F05150CB6E83C0CAFFCC6A57
:10221C00CA8487C051F088C052F089C053F08AC07C
:10222C0054F01EEC11F051C07BF052C07CF0120047
:10223C00533454345A6E5A50D8A427EF11F029EF66
:10224C0011F033EF11F0000E516E000E526E000EB5
:10225C00536E000E546EA0EF11F051C055F052C0E9
:10226C0056F053C057F054C058F0200E43EF11F005
:10227C00D8905832573256325532E82E3EEF11F084
:10228C005550596E538EFF0E5116FF0E5216FF0EFF
:10229C005316000E5416960E5A5E5ABE5AEF11F093
:1022AC0058EF11F070EF11F05A50800A970FD8B018
:1022BC0062EF11F064EF11F066EF11F029EF11F0FD
:1022CC00D89054325332523251325A3E66EF11F09A
:1022DC0088EF11F01F0E5A6476EF11F078EF11F0C1
:1022EC0080EF11F029EF11F0D89051365236533659
:1022FC0054365A065A50D8A486EF11F088EF11F0D4
:10230C007AEF11F05950D8B48EEF11F090EF11F024
:10231C0098EF11F0541E531E521E516C000E522297
:10232C005322542251C051F052C052F053C053F0BA
:10233C0054C054F01200000E0114096E000E021469
:10234C000A6E800E03140B6E7F0E04140C6E095073
:10235C000A100B100C10D8A4B6EF11F0B8EF11F056
:10236C00C0EF11F0000E016E000E026E000E036E37
:10237C00000E046E000E0514096E000E06140A6E93
:10238C00800E07140B6E7F0E08140C6E09500A1089
:10239C000B100C10D8A4D5EF11F0D7EF11F0DFEF24
:1023AC0011F0000E056E000E066E000E076E000E8C
:1023BC00086E04AEE4EF11F0E6EF11F0EFEF11F060
:1023CC00016C021ED8B0022A031ED8B0032A800E5C
:1023DC00045608AEF4EF11F0F6EF11F0FFEF11F028
:1023EC00056C061ED8B0062A071ED8B0072A800E28
:1023FC000856000E011A000E021A000E031A800E67
:10240C00041A000E051A000E061A000E071A800E8A
:10241C00081A0550015C0650025807500358085022
:10242C000458D8B01CEF12F01EEF12F021EF12F08E
:10243C00D89022EF12F0D8801200000E136E000E0E
:10244C00146E800E156E400E166E000E456E000E4C
:10245C00466E800E476E3F0E486E64C001F065C03C
:10246C0002F0000E02BEFF0E036E046E010E78EC3D
:10247C000FF001C041F002C042F003C043F004C0B1
:10248C0044F0C5EC06F041C00FF042C010F043C060
:10249C0011F044C012F020EC09F00FC066F010C02F
:1024AC0067F011C068F012C069F0000E2C6E000EBF
:1024BC002D6EC80E2E6E420E2F6E60C028F061C0BD
:1024CC0029F062C02AF063C02BF033EC0BF028C06B
:1024DC0013F029C014F02AC015F02BC016F066C0FA
:1024EC000FF067C010F068C011F069C012F020EC5A
:1024FC0009F00FC051F010C052F011C053F012C0CF
:10250C0054F01EEC11F051C06AF052C06BF06AC06E
:10251C005BF06BC05CF05C345C325B325C345C3224
:10252C005B325B50BE6E6AC05BF0030E5B165B38B1
:10253C00F00B0C09BD6E1200948C948E5BC001F0F4
:10254C005CC002F05DC003F05EC004F0010E78ECDC
:10255C000FF001C02CF002C02DF003C02EF004C00F
:10256C002FF0000E286E240E296EF40E2A6E470EE4
:10257C002B6E33EC0BF028C041F029C042F02AC07E
:10258C0043F02BC044F0000E456E000E466E800EDC
:10259C00476EBF0E486EC5EC06F041C060F042C0FD
:1025AC0061F043C062F044C063F060C051F061C0A0
:1025BC0052F062C053F063C054F01EEC11F0515055
:1025CC00AF6EAC9EAC9CAC8AAC98AC94B896900EAA
:1025DC00AB6E1200F4EF12F0012A022A0250D96EEF
:1025EC00DA6A0150E16EE26ADE50E618D8A401EF17
:1025FC0013F003EF13F00EEF13F00150D96EDA6AFB
:10260C00DF50D8A40CEF13F00EEF13F0F2EF12F032
:10261C000150D96EDA6ADF50036E0250D96EDA6A55
:10262C00DF50046E0450035C016E026AD8A00206EF
:10263C001200086E08C007F0F00E07168C500F0B36
:10264C0007108C6E8C808C8200008C92000E026EB7
:10265C00010E016E6FEC13F008C007F0073AF00E94
:10266C000716F00E07168C500F0B07108C6E8C8211
:10267C0000008C92000E026E030E016E6FEC13F0D4
:10268C001200086E08C007F0F00E07168C500F0BE6
:10269C0007108C6E8C908C8200008C92000E026E57
:1026AC00010E016E6FEC13F008C007F0073AF00E44
:1026BC000716F00E07168C500F0B07108C6E8C82C1
:1026CC0000008C92000E026E030E016E6FEC13F084
:1026DC001200000E046E000E036E88EF13F0000E55
:1026EC00066E000E056E054A062A065009E1A50E77
:1026FC00055CD8A084EF13F086EF13F079EF13F09C
:10270C00034A042A0150035C02500458D8A091EFEC
:10271C0013F093EF13F075EF13F01200000E551A2F
:10272C00000E561A000E571A800E581A51C041F05E
:10273C0052C042F053C043F054C044F055C045F071
:10274C0056C046F057C047F058C048F0C5EC06F0EC
:10275C0041C051F042C052F043C053F044C054F059
:10276C001200F80EF66E280EF76E000EF86E00EEE4
:10277C0095F010EE17F00900F5CFEEFFE550E150A3
:10278C00FAE100EEACF0110EEE6AE806FDE15F6ACC
:10279C00000EF86E080EF76E000136EF04F00C6EAA
:1027AC000C50D8A4DCEF13F0DEEF13F0E7EF13F0CE
:1027BC000A500F0B80090D6E0D5047EC13F0EEEF25
:1027CC0013F00A500F0BC0090D6E0D5047EC13F0AF
:1027DC000BC009F03EEC14F0120001500210031073
:1027EC000410D8B4FCEF13F0FEEF13F006EF14F066
:1027FC00000E011A000E021A000E031A800E041AA3
:10280C0001C001F002C002F003C003F004C004F0E8
:10281C00120001C006F019EF14F00650D96EDA6AF6
:10282C0002C0DFFF062A0406D8A00506042806E12C
:10283C000528D8A424EF14F026EF14F013EF14F0AD
:10284C001200956A000E026E0F0E016E6FEC13F003
:10285C00020E47EC13F0280E47EC13F0010E47EC78
:10286C0013F00C0E47EC13F0060E47EC13F01200AD
:10287C0047EF14F009C0F6FF0800F5501FEC13F0F9
:10288C00092A09C0F6FF0800F5500009D8A451EF39
:10289C0014F053EF14F040EF14F0120001C003F0E9
:1028AC00022A0204D96EDA6A032A0304E16EE26A90
:1028BC00DFCFE7FFE750D8A466EF14F068EF14F011
:1028CC0056EF14F012009EAA6EEF14F070EF14F095
:1028DC0069EF14F0ABA275EF14F077EF14F07AEF08
:1028EC0014F0AB980000AB88AE5012003738392F7B
:1028FC003435362A3132332D20303D2B31323334BE
:03290C003536005D
:10291000016E9EA88EEF14F090EF14F089EF14F082
:1029200001C0ADFF120094940C0EBD6E1200010E9A
:0629300047EC13F0120059
:047FFC00B7EF13F0D8
:020000040030CA
:0E00000000091F1EFF0181FF0FC00FE00F401F
:00000001FF
